{
  "contractName": "SimpleStorage",
  "abi": [
    {
      "constant": false,
      "inputs": [
        {
          "internalType": "string",
          "name": "_json",
          "type": "string"
        }
      ],
      "name": "setTodos",
      "outputs": [],
      "payable": false,
      "stateMutability": "nonpayable",
      "type": "function"
    },
    {
      "constant": true,
      "inputs": [],
      "name": "getTodos",
      "outputs": [
        {
          "internalType": "string",
          "name": "",
          "type": "string"
        }
      ],
      "payable": false,
      "stateMutability": "view",
      "type": "function"
    },
    {
      "constant": false,
      "inputs": [],
      "name": "deleteTodos",
      "outputs": [],
      "payable": true,
      "stateMutability": "payable",
      "type": "function"
    }
  ],
  "bytecode": "0x6080604052670de0b6b3a764000060015534801561001c57600080fd5b506105478061002c6000396000f3fe6080604052600436106100345760003560e01c80639fb2d34814610039578063c33926cb14610043578063fd3aa73d146100d3575b600080fd5b61004161019b565b005b34801561004f57600080fd5b5061005861029c565b6040518080602001828103825283818151815260200191508051906020019080838360005b8381101561009857808201518184015260208101905061007d565b50505050905090810190601f1680156100c55780820380516001836020036101000a031916815260200191505b509250505060405180910390f35b3480156100df57600080fd5b50610199600480360360208110156100f657600080fd5b810190808035906020019064010000000081111561011357600080fd5b82018360208201111561012557600080fd5b8035906020019184600183028401116401000000008311171561014757600080fd5b91908080601f016020809104026020016040519081016040528093929190818152602001838380828437600081840152601f19601f82011690508083019250505050505050919291929050505061037a565b005b6001543414610212576040517f08c379a000000000000000000000000000000000000000000000000000000000815260040180806020018281038252601e8152602001807f44656c6574696e6720546f646f73206e6565647320657468657265756d2e000081525060200191505060405180910390fd5b6040518060400160405280600281526020017f5b5d0000000000000000000000000000000000000000000000000000000000008152506000803373ffffffffffffffffffffffffffffffffffffffff1673ffffffffffffffffffffffffffffffffffffffff168152602001908152602001600020908051906020019061029992919061043e565b50565b60606000803373ffffffffffffffffffffffffffffffffffffffff1673ffffffffffffffffffffffffffffffffffffffff1681526020019081526020016000208054600181600116156101000203166002900480601f0160208091040260200160405190810160405280929190818152602001828054600181600116156101000203166002900480156103705780601f1061034557610100808354040283529160200191610370565b820191906000526020600020905b81548152906001019060200180831161035357829003601f168201915b5050505050905090565b600061038461029c565b519050600082519050808211156103e6576040517f08c379a000000000000000000000000000000000000000000000000000000000815260040180806020018281038252602f8152602001806104e4602f913960400191505060405180910390fd5b826000803373ffffffffffffffffffffffffffffffffffffffff1673ffffffffffffffffffffffffffffffffffffffff168152602001908152602001600020908051906020019061043892919061043e565b50505050565b828054600181600116156101000203166002900490600052602060002090601f016020900481019282601f1061047f57805160ff19168380011785556104ad565b828001600101855582156104ad579182015b828111156104ac578251825591602001919060010190610491565b5b5090506104ba91906104be565b5090565b6104e091905b808211156104dc5760008160009055506001016104c4565b5090565b9056fe44656c6574696e6720746f646f73206973206e6f7420737570706f7274656420696e2074686973206d6574686f642ea265627a7a72315820f2cc8e058d7e6a5dce32f017ad4cd40d9acbb49f2078fabc3b4443fb3542e5cf64736f6c634300050c0032",
  "source": "pragma solidity ^0.5.0;\n\n// 0. class == contract みたいなもの\ncontract SimpleStorage {\n  // 1. ここに記述するものはブロックチェーン上に保存される\n  mapping (address => string) todos;\n  uint costToRemoveTodos = 1.0 ether;\n\n  // 2. public な関数だと、web から呼び出すことができる！\n  function setTodos(string memory _json) public {\n    uint lengthBefore = bytes(getTodos()).length;\n    uint lengthAfter = bytes(_json).length;\n    require(lengthBefore <= lengthAfter, \"Deleting todos is not supported in this method.\");\n\n    // 3. ブロックチェーンに保存するコードはこれだけでOK\n    // msg.sender は関数を呼び出しユーザーのID(アドレス)\n    todos[msg.sender] = _json;\n  }\n\n  // 4. view をつけると読み込みのみになり、タダで呼び出せる\n  function getTodos() public view returns (string memory) {\n    return todos[msg.sender];\n  }\n\n  // 5. payable をつけると関数実行時に課金できる！\n  function deleteTodos() public payable {\n    require(msg.value == costToRemoveTodos, \"Deleting Todos needs ethereum.\");\n\n    todos[msg.sender] = \"[]\";\n  }\n}\n",
  "sourcePath": "/Users/t_asai/Desktop/todos/contracts/SimpleStorage.sol",
  "compiler": {
    "name": "solc",
    "version": "0.5.12+commit.7709ece9.Emscripten.clang"
  },
  "schemaVersion": "3.0.19",
  "updatedAt": "2019-12-03T02:01:42.349Z",
  "networkType": "ethereum",
  "devdoc": {
    "methods": {}
  },
  "userdoc": {
    "methods": {}
  }
}